{
  "contractName": "VoteSystem",
  "abi": [
    {
      "anonymous": false,
      "inputs": [
        {
          "indexed": true,
          "internalType": "address",
          "name": "_owner",
          "type": "address"
        },
        {
          "indexed": true,
          "internalType": "address",
          "name": "_approved",
          "type": "address"
        },
        {
          "indexed": true,
          "internalType": "uint256",
          "name": "_tokenId",
          "type": "uint256"
        }
      ],
      "name": "Approval",
      "type": "event"
    },
    {
      "anonymous": false,
      "inputs": [
        {
          "indexed": true,
          "internalType": "address",
          "name": "issuer",
          "type": "address"
        }
      ],
      "name": "CandidateAdded",
      "type": "event"
    },
    {
      "anonymous": false,
      "inputs": [
        {
          "indexed": true,
          "internalType": "address",
          "name": "issuer",
          "type": "address"
        }
      ],
      "name": "IssuerAdded",
      "type": "event"
    },
    {
      "anonymous": false,
      "inputs": [
        {
          "indexed": true,
          "internalType": "address",
          "name": "previousOwner",
          "type": "address"
        },
        {
          "indexed": true,
          "internalType": "address",
          "name": "newOwner",
          "type": "address"
        }
      ],
      "name": "OwnershipTransferred",
      "type": "event"
    },
    {
      "anonymous": false,
      "inputs": [
        {
          "indexed": true,
          "internalType": "address",
          "name": "_from",
          "type": "address"
        },
        {
          "indexed": true,
          "internalType": "address",
          "name": "_to",
          "type": "address"
        },
        {
          "indexed": true,
          "internalType": "uint256",
          "name": "_tokenId",
          "type": "uint256"
        }
      ],
      "name": "Transfer",
      "type": "event"
    },
    {
      "anonymous": false,
      "inputs": [
        {
          "indexed": true,
          "internalType": "uint256",
          "name": "tokenId",
          "type": "uint256"
        }
      ],
      "name": "VoteIssued",
      "type": "event"
    },
    {
      "constant": false,
      "inputs": [
        {
          "internalType": "address",
          "name": "_candidate",
          "type": "address"
        }
      ],
      "name": "addCandidate",
      "outputs": [],
      "payable": false,
      "stateMutability": "nonpayable",
      "type": "function"
    },
    {
      "constant": false,
      "inputs": [
        {
          "internalType": "address",
          "name": "_issuer",
          "type": "address"
        }
      ],
      "name": "addIssuer",
      "outputs": [],
      "payable": false,
      "stateMutability": "nonpayable",
      "type": "function"
    },
    {
      "constant": true,
      "inputs": [],
      "name": "getCandidates",
      "outputs": [
        {
          "internalType": "address[]",
          "name": "",
          "type": "address[]"
        }
      ],
      "payable": false,
      "stateMutability": "view",
      "type": "function"
    },
    {
      "constant": true,
      "inputs": [],
      "name": "getIssuers",
      "outputs": [
        {
          "internalType": "address[]",
          "name": "",
          "type": "address[]"
        }
      ],
      "payable": false,
      "stateMutability": "view",
      "type": "function"
    },
    {
      "constant": true,
      "inputs": [
        {
          "internalType": "address",
          "name": "",
          "type": "address"
        }
      ],
      "name": "isCandidate",
      "outputs": [
        {
          "internalType": "bool",
          "name": "",
          "type": "bool"
        }
      ],
      "payable": false,
      "stateMutability": "view",
      "type": "function"
    },
    {
      "constant": true,
      "inputs": [
        {
          "internalType": "address",
          "name": "",
          "type": "address"
        }
      ],
      "name": "isIssuer",
      "outputs": [
        {
          "internalType": "bool",
          "name": "",
          "type": "bool"
        }
      ],
      "payable": false,
      "stateMutability": "view",
      "type": "function"
    },
    {
      "constant": true,
      "inputs": [],
      "name": "isOwner",
      "outputs": [
        {
          "internalType": "bool",
          "name": "",
          "type": "bool"
        }
      ],
      "payable": false,
      "stateMutability": "view",
      "type": "function"
    },
    {
      "constant": true,
      "inputs": [],
      "name": "owner",
      "outputs": [
        {
          "internalType": "address",
          "name": "",
          "type": "address"
        }
      ],
      "payable": false,
      "stateMutability": "view",
      "type": "function"
    },
    {
      "constant": true,
      "inputs": [
        {
          "internalType": "address",
          "name": "",
          "type": "address"
        }
      ],
      "name": "ownerVotes",
      "outputs": [
        {
          "internalType": "uint256",
          "name": "",
          "type": "uint256"
        }
      ],
      "payable": false,
      "stateMutability": "view",
      "type": "function"
    },
    {
      "constant": false,
      "inputs": [],
      "name": "renounceOwnership",
      "outputs": [],
      "payable": false,
      "stateMutability": "nonpayable",
      "type": "function"
    },
    {
      "constant": false,
      "inputs": [
        {
          "internalType": "address",
          "name": "newOwner",
          "type": "address"
        }
      ],
      "name": "transferOwnership",
      "outputs": [],
      "payable": false,
      "stateMutability": "nonpayable",
      "type": "function"
    },
    {
      "constant": true,
      "inputs": [
        {
          "internalType": "address",
          "name": "_owner",
          "type": "address"
        }
      ],
      "name": "balanceOf",
      "outputs": [
        {
          "internalType": "uint256",
          "name": "",
          "type": "uint256"
        }
      ],
      "payable": false,
      "stateMutability": "view",
      "type": "function"
    },
    {
      "constant": true,
      "inputs": [
        {
          "internalType": "uint256",
          "name": "_tokenId",
          "type": "uint256"
        }
      ],
      "name": "ownerOf",
      "outputs": [
        {
          "internalType": "address",
          "name": "",
          "type": "address"
        }
      ],
      "payable": false,
      "stateMutability": "view",
      "type": "function"
    },
    {
      "constant": false,
      "inputs": [
        {
          "internalType": "address",
          "name": "_from",
          "type": "address"
        },
        {
          "internalType": "address",
          "name": "_to",
          "type": "address"
        },
        {
          "internalType": "uint256",
          "name": "_tokenId",
          "type": "uint256"
        }
      ],
      "name": "transferFrom",
      "outputs": [],
      "payable": true,
      "stateMutability": "payable",
      "type": "function"
    },
    {
      "constant": false,
      "inputs": [
        {
          "internalType": "address",
          "name": "_approved",
          "type": "address"
        },
        {
          "internalType": "uint256",
          "name": "_tokenId",
          "type": "uint256"
        }
      ],
      "name": "approve",
      "outputs": [],
      "payable": true,
      "stateMutability": "payable",
      "type": "function"
    },
    {
      "constant": false,
      "inputs": [
        {
          "internalType": "address",
          "name": "_voteRecipient",
          "type": "address"
        }
      ],
      "name": "issueVote",
      "outputs": [],
      "payable": true,
      "stateMutability": "payable",
      "type": "function"
    },
    {
      "constant": true,
      "inputs": [],
      "name": "getVotesByOwner",
      "outputs": [
        {
          "components": [
            {
              "internalType": "uint256",
              "name": "index",
              "type": "uint256"
            },
            {
              "internalType": "uint32",
              "name": "issuedAt",
              "type": "uint32"
            },
            {
              "internalType": "bool",
              "name": "consumed",
              "type": "bool"
            }
          ],
          "internalType": "struct VoteSystem.Vote[]",
          "name": "",
          "type": "tuple[]"
        }
      ],
      "payable": false,
      "stateMutability": "view",
      "type": "function"
    }
  ],
  "bytecode": "0x60806040819052600080546001600160a01b03191633178082556001600160a01b0316917f8be0079c531659141344cd1fd0a4f28419497f9722a3daafe3b4186f6b6457e0908290a3610f73806100576000396000f3fe6080604052600436106100fe5760003560e01c806370a08231116100955780638f32d59b116100645780638f32d59b14610289578063a594da951461029e578063d51b9e93146102b3578063f2fde38b146102d3578063f4aedc31146102f3576100fe565b806370a0823114610212578063715018a614610232578063877b9a67146102475780638da5cb5b14610274576100fe565b806328dd75a7116100d157806328dd75a7146101765780633acd75f8146101a35780636352211e146101c35780636ad4492e146101f0576100fe565b806306a49fce14610103578063095ea7b31461012e57806320694db01461014357806323b872dd14610163575b600080fd5b34801561010f57600080fd5b50610118610306565b6040516101259190610e93565b60405180910390f35b61014161013c366004610cf7565b610368565b005b34801561014f57600080fd5b5061014161015e366004610c84565b61048e565b610141610171366004610caa565b610549565b34801561018257600080fd5b50610196610191366004610c84565b610704565b6040516101259190610eca565b3480156101af57600080fd5b506101416101be366004610c84565b610716565b3480156101cf57600080fd5b506101e36101de366004610d31565b6107d1565b6040516101259190610e85565b3480156101fc57600080fd5b506102056107ec565b6040516101259190610eab565b34801561021e57600080fd5b5061019661022d366004610c84565b610904565b34801561023e57600080fd5b5061014161091f565b34801561025357600080fd5b50610267610262366004610c84565b61097a565b6040516101259190610ebc565b34801561028057600080fd5b506101e361098f565b34801561029557600080fd5b5061026761099e565b3480156102aa57600080fd5b506101186109af565b3480156102bf57600080fd5b506102676102ce366004610c84565b610a0f565b3480156102df57600080fd5b506101416102ee366004610c84565b610a24565b610141610301366004610c84565b610a41565b6060600480548060200260200160405190810160405280929190818152602001828054801561035e57602002820191906000526020600020905b81546001600160a01b03168152600190910190602001808311610340575b5050505050905090565b60008181526007602052604090205481906001600160a01b0316331461038d57600080fd5b6000543390849084906001600160a01b03168314156103ab57600080fd5b6001600160a01b03831660009081526002602052604090205460ff16156103d157600080fd5b6001600160a01b03821660009081526002602052604090205460ff1615156001146103fb57600080fd5b6005818154811061040857fe5b6000918252602090912060029091020160010154640100000000900460ff161561043157600080fd5b60008581526008602052604080822080546001600160a01b0319166001600160a01b038a169081179091559051879233917f8c5be1e5ebec7d5bd14f71427d1e84f3dd0314c0f7b2291e5b200ac8c7c3b9259190a4505050505050565b61049661099e565b61049f57600080fd5b60005481906001600160a01b03808316911614156104bc57600080fd5b6001600160a01b0382166000818152600160208190526040808320805460ff19168317905560038054928301815583527fc2575a0e9e593c00f959f8c92f12db2869c3395a3b0502d05e2516446f71f85b90910180546001600160a01b03191684179055517f05e7c881d716bee8cb7ed92293133ba156704252439e5c502c277448f04e20c29190a25050565b6000548390839083906001600160a01b038085169116141561056a57600080fd5b6001600160a01b03831660009081526002602052604090205460ff161561059057600080fd5b6001600160a01b03821660009081526002602052604090205460ff1615156001146105ba57600080fd5b600581815481106105c757fe5b6000918252602090912060029091020160010154640100000000900460ff16156105f057600080fd5b6000848152600760205260409020546001600160a01b031633148061062b57506000848152600860205260409020546001600160a01b031633145b61063457600080fd5b6001600160a01b03808616600081815260066020908152604080832080546001908101909155948b16835280832080546000190190558883526007909152902080546001600160a01b0319169091179055600580548690811061069357fe5b906000526020600020906002020160010160046101000a81548160ff02191690831515021790555083856001600160a01b0316876001600160a01b03167fddf252ad1be2c89b69c2b068fc378daa952ba7f163c4a11628f55a4df523b3ef60405160405180910390a4505050505050565b60066020526000908152604090205481565b61071e61099e565b61072757600080fd5b60005481906001600160a01b038083169116141561074457600080fd5b6001600160a01b038216600081815260026020526040808220805460ff1916600190811790915560048054918201815583527f8a35acfbc15ff81a39ae7d344fd709f28e8600b4aa8c65c6b64bfe7fe36bd19b0180546001600160a01b03191684179055517faa38be308bdffe126c2b6be720070355eb22e0efc549ac39221b1ce71642ed409190a25050565b6000908152600760205260409020546001600160a01b031690565b60608060066000336001600160a01b03166001600160a01b031681526020019081526020016000205460405190808252806020026020018201604052801561084e57816020015b61083b610c48565b8152602001906001900390816108335790505b5090506000805b6005548110156108fc576000818152600760205260409020546001600160a01b03163314156108f4576005818154811061088b57fe5b600091825260209182902060408051606081018252600293909302909101805483526001015463ffffffff81169383019390935264010000000090920460ff1615159181019190915283518490849081106108e257fe5b60209081029190910101526001909101905b600101610855565b509091505090565b6001600160a01b031660009081526006602052604090205490565b61092761099e565b61093057600080fd5b600080546040516001600160a01b03909116907f8be0079c531659141344cd1fd0a4f28419497f9722a3daafe3b4186f6b6457e0908390a3600080546001600160a01b0319169055565b60016020526000908152604090205460ff1681565b6000546001600160a01b031690565b6000546001600160a01b0316331490565b6060600380548060200260200160405190810160405280929190818152602001828054801561035e576020028201919060005260206000209081546001600160a01b03168152600190910190602001808311610340575050505050905090565b60026020526000908152604090205460ff1681565b610a2c61099e565b610a3557600080fd5b610a3e81610bda565b50565b33600090815260016020819052604090912054829160ff909116151514610a6757600080fd5b6001600160a01b03811660009081526001602052604090205460ff1615610a8d57600080fd5b6001600160a01b03811660009081526002602052604090205460ff1615610ab357600080fd5b610abb610c48565b50604080516060810182526005805480835263ffffffff42811660208086019182526000868801818152600180870188559682528751600287027f036b6384b5eca791c62761152d0c79bb0604c104a5fb6f4eb0703f3154bb3db081019190915593517f036b6384b5eca791c62761152d0c79bb0604c104a5fb6f4eb0703f3154bb3db19094018054915115156401000000000264ff00000000199590961663ffffffff199092169190911793909316939093179091558282526007815285822080546001600160a01b038a166001600160a01b031990911681179091558252600690528481208054909301909255925191929182917f20e0e0a20759ae5430ee57b8c83fe34b51334f5ba7b26509918107f5d2e9035f91a250505050565b6001600160a01b038116610bed57600080fd5b600080546040516001600160a01b03808516939216917f8be0079c531659141344cd1fd0a4f28419497f9722a3daafe3b4186f6b6457e091a3600080546001600160a01b0319166001600160a01b0392909216919091179055565b604080516060810182526000808252602082018190529181019190915290565b8035610c7381610f13565b92915050565b8035610c7381610f27565b600060208284031215610c9657600080fd5b6000610ca28484610c68565b949350505050565b600080600060608486031215610cbf57600080fd5b6000610ccb8686610c68565b9350506020610cdc86828701610c68565b9250506040610ced86828701610c79565b9150509250925092565b60008060408385031215610d0a57600080fd5b6000610d168585610c68565b9250506020610d2785828601610c79565b9150509250929050565b600060208284031215610d4357600080fd5b6000610ca28484610c79565b6000610d5b8383610d77565b505060200190565b6000610d6f8383610e36565b505060600190565b610d8081610eeb565b82525050565b6000610d9182610ede565b610d9b8185610ee2565b9350610da683610ed8565b8060005b83811015610dd4578151610dbe8882610d4f565b9750610dc983610ed8565b925050600101610daa565b509495945050505050565b6000610dea82610ede565b610df48185610ee2565b9350610dff83610ed8565b8060005b83811015610dd4578151610e178882610d63565b9750610e2283610ed8565b925050600101610e03565b610d8081610ef6565b80516060830190610e478482610e73565b506020820151610e5a6020850182610e7c565b506040820151610e6d6040850182610e2d565b50505050565b610d8081610f07565b610d8081610f0a565b60208101610c738284610d77565b60208082528101610ea48184610d86565b9392505050565b60208082528101610ea48184610ddf565b60208101610c738284610e2d565b60208101610c738284610e73565b60200190565b5190565b90815260200190565b6000610c7382610efb565b151590565b6001600160a01b031690565b90565b63ffffffff1690565b610f1c81610eeb565b8114610a3e57600080fd5b610f1c81610f0756fea365627a7a723158206c16db73b32fb0252e210e8b1d73122ded5ef28b04bb2b4fa07ae26f8a174aab6c6578706572696d656e74616cf564736f6c63430005100040",
  "source": "pragma solidity >=0.5.0 <0.6.0;\r\npragma experimental ABIEncoderV2;\r\n\r\nimport \"./votemanagement.sol\";\r\nimport \"./erc721.sol\";\r\n\r\n\r\ncontract VoteSystem is VoteManagement, ERC721 {\r\n    event VoteIssued(uint indexed tokenId);\r\n\r\n    struct Vote {\r\n        uint index;\r\n        uint32 issuedAt;\r\n        bool consumed;\r\n    }\r\n\r\n    Vote[] private votes;\r\n    mapping(address => uint) public ownerVotes;\r\n    mapping(uint => address) votesToOwner;\r\n    mapping(uint => address) voteTransferApproved;\r\n\r\n    modifier voteConditions(address _from, address _to, uint256 _tokenId){\r\n        require(_from != _owner);\r\n        require(isCandidate[_from] == false);\r\n        require(isCandidate[_to] == true);\r\n        require(votes[_tokenId].consumed == false);\r\n        _;\r\n    }\r\n\r\n    modifier onlyOwnerOfVote(uint _tokenId){\r\n        require(votesToOwner[_tokenId] == msg.sender);\r\n        _;\r\n    }\r\n\r\n    function balanceOf(address _owner) external view returns (uint256) {\r\n        return ownerVotes[_owner];\r\n    }\r\n\r\n    function ownerOf(uint256 _tokenId) external view returns (address){\r\n        return votesToOwner[_tokenId];\r\n    }\r\n\r\n    function transferFrom(address _from, address _to, uint256 _tokenId) external voteConditions(_from, _to, _tokenId) payable {\r\n        require(votesToOwner[_tokenId] == msg.sender || voteTransferApproved[_tokenId] == msg.sender);\r\n        ownerVotes[_to]++;\r\n        ownerVotes[_from]--;\r\n        votesToOwner[_tokenId] = _to;\r\n        votes[_tokenId].consumed = true;\r\n        emit Transfer(_from, _to, _tokenId);\r\n    }\r\n\r\n    function approve(address _approved, uint256 _tokenId) public onlyOwnerOfVote(_tokenId) voteConditions(msg.sender, _approved, _tokenId) payable {\r\n        voteTransferApproved[_tokenId] = _approved;\r\n        emit Approval(msg.sender, _approved, _tokenId);\r\n    }\r\n\r\n    function issueVote(address _voteRecipient) external payable issuerCondition(_voteRecipient) {\r\n        Vote memory vote = Vote(votes.length, uint32(now), false);\r\n        uint id = votes.push(vote) - 1;\r\n        votesToOwner[id] = _voteRecipient;\r\n        ownerVotes[_voteRecipient]++;\r\n        emit VoteIssued(id);\r\n    }\r\n\r\n    function getVotesByOwner() external view returns (Vote[] memory){\r\n        Vote[] memory result = new Vote[](ownerVotes[msg.sender]);\r\n        uint counter = 0;\r\n        for (uint i = 0; i < votes.length; i++) {\r\n            if (votesToOwner[i] == msg.sender) {\r\n                result[counter] = votes[i];\r\n                counter++;\r\n            }\r\n        }\r\n        return result;\r\n    }\r\n}\r\n",
  "sourcePath": "D:/Projects/Webstorm Projects/decentralized-voting-system/src/app/ethereum/contracts/votesystem.sol",
  "compiler": {
    "name": "solc",
    "version": "0.5.16+commit.9c3226ce.Emscripten.clang"
  },
  "schemaVersion": "3.3.1",
  "updatedAt": "2020-10-25T21:13:26.741Z",
  "networkType": "ethereum",
  "devdoc": {
    "methods": {
      "isOwner()": {
        "return": "true if `msg.sender` is the owner of the contract."
      },
      "owner()": {
        "return": "the address of the owner."
      },
      "renounceOwnership()": {
        "details": "Allows the current owner to relinquish control of the contract."
      },
      "transferOwnership(address)": {
        "details": "Allows the current owner to transfer control of the contract to a newOwner.",
        "params": {
          "newOwner": "The address to transfer ownership to."
        }
      }
    }
  },
  "userdoc": {
    "methods": {
      "renounceOwnership()": {
        "notice": "Renouncing to ownership will leave the contract without an owner. It will not be possible to call the functions with the `onlyOwner` modifier anymore."
      }
    }
  }
}