{
  "contractName": "VoteManagement",
  "abi": [
    {
      "anonymous": false,
      "inputs": [
        {
          "indexed": true,
          "internalType": "address",
          "name": "issuer",
          "type": "address"
        }
      ],
      "name": "CandidateAdded",
      "type": "event"
    },
    {
      "anonymous": false,
      "inputs": [
        {
          "indexed": true,
          "internalType": "address",
          "name": "issuer",
          "type": "address"
        }
      ],
      "name": "IssuerAdded",
      "type": "event"
    },
    {
      "anonymous": false,
      "inputs": [
        {
          "indexed": true,
          "internalType": "address",
          "name": "previousOwner",
          "type": "address"
        },
        {
          "indexed": true,
          "internalType": "address",
          "name": "newOwner",
          "type": "address"
        }
      ],
      "name": "OwnershipTransferred",
      "type": "event"
    },
    {
      "constant": true,
      "inputs": [
        {
          "internalType": "address",
          "name": "",
          "type": "address"
        }
      ],
      "name": "isCandidate",
      "outputs": [
        {
          "internalType": "bool",
          "name": "",
          "type": "bool"
        }
      ],
      "payable": false,
      "stateMutability": "view",
      "type": "function"
    },
    {
      "constant": true,
      "inputs": [
        {
          "internalType": "address",
          "name": "",
          "type": "address"
        }
      ],
      "name": "isIssuer",
      "outputs": [
        {
          "internalType": "bool",
          "name": "",
          "type": "bool"
        }
      ],
      "payable": false,
      "stateMutability": "view",
      "type": "function"
    },
    {
      "constant": true,
      "inputs": [],
      "name": "isOwner",
      "outputs": [
        {
          "internalType": "bool",
          "name": "",
          "type": "bool"
        }
      ],
      "payable": false,
      "stateMutability": "view",
      "type": "function"
    },
    {
      "constant": true,
      "inputs": [],
      "name": "owner",
      "outputs": [
        {
          "internalType": "address",
          "name": "",
          "type": "address"
        }
      ],
      "payable": false,
      "stateMutability": "view",
      "type": "function"
    },
    {
      "constant": false,
      "inputs": [],
      "name": "renounceOwnership",
      "outputs": [],
      "payable": false,
      "stateMutability": "nonpayable",
      "type": "function"
    },
    {
      "constant": false,
      "inputs": [
        {
          "internalType": "address",
          "name": "newOwner",
          "type": "address"
        }
      ],
      "name": "transferOwnership",
      "outputs": [],
      "payable": false,
      "stateMutability": "nonpayable",
      "type": "function"
    },
    {
      "constant": false,
      "inputs": [
        {
          "internalType": "address",
          "name": "_issuer",
          "type": "address"
        }
      ],
      "name": "addIssuer",
      "outputs": [],
      "payable": false,
      "stateMutability": "nonpayable",
      "type": "function"
    },
    {
      "constant": false,
      "inputs": [
        {
          "internalType": "address",
          "name": "_candidate",
          "type": "address"
        }
      ],
      "name": "addCandidate",
      "outputs": [],
      "payable": false,
      "stateMutability": "nonpayable",
      "type": "function"
    },
    {
      "constant": true,
      "inputs": [],
      "name": "getIssuers",
      "outputs": [
        {
          "internalType": "address[]",
          "name": "",
          "type": "address[]"
        }
      ],
      "payable": false,
      "stateMutability": "view",
      "type": "function"
    },
    {
      "constant": true,
      "inputs": [],
      "name": "getCandidates",
      "outputs": [
        {
          "internalType": "address[]",
          "name": "",
          "type": "address[]"
        }
      ],
      "payable": false,
      "stateMutability": "view",
      "type": "function"
    }
  ],
  "bytecode": "0x60806040819052600080546001600160a01b03191633178082556001600160a01b0316917f8be0079c531659141344cd1fd0a4f28419497f9722a3daafe3b4186f6b6457e0908290a36105a8806100576000396000f3fe608060405234801561001057600080fd5b506004361061009e5760003560e01c80638da5cb5b116100665780638da5cb5b1461018b5780638f32d59b146101af578063a594da95146101b7578063d51b9e93146101bf578063f2fde38b146101e55761009e565b806306a49fce146100a357806320694db0146100fb5780633acd75f814610123578063715018a614610149578063877b9a6714610151575b600080fd5b6100ab61020b565b60408051602080825283518183015283519192839290830191858101910280838360005b838110156100e75781810151838201526020016100cf565b505050509050019250505060405180910390f35b6101216004803603602081101561011157600080fd5b50356001600160a01b031661026d565b005b6101216004803603602081101561013957600080fd5b50356001600160a01b0316610328565b6101216103e3565b6101776004803603602081101561016757600080fd5b50356001600160a01b031661043e565b604080519115158252519081900360200190f35b610193610453565b604080516001600160a01b039092168252519081900360200190f35b610177610462565b6100ab610473565b610177600480360360208110156101d557600080fd5b50356001600160a01b03166104d3565b610121600480360360208110156101fb57600080fd5b50356001600160a01b03166104e8565b6060600480548060200260200160405190810160405280929190818152602001828054801561026357602002820191906000526020600020905b81546001600160a01b03168152600190910190602001808311610245575b5050505050905090565b610275610462565b61027e57600080fd5b60005481906001600160a01b038083169116141561029b57600080fd5b6001600160a01b0382166000818152600160208190526040808320805460ff19168317905560038054928301815583527fc2575a0e9e593c00f959f8c92f12db2869c3395a3b0502d05e2516446f71f85b90910180546001600160a01b03191684179055517f05e7c881d716bee8cb7ed92293133ba156704252439e5c502c277448f04e20c29190a25050565b610330610462565b61033957600080fd5b60005481906001600160a01b038083169116141561035657600080fd5b6001600160a01b038216600081815260026020526040808220805460ff1916600190811790915560048054918201815583527f8a35acfbc15ff81a39ae7d344fd709f28e8600b4aa8c65c6b64bfe7fe36bd19b0180546001600160a01b03191684179055517faa38be308bdffe126c2b6be720070355eb22e0efc549ac39221b1ce71642ed409190a25050565b6103eb610462565b6103f457600080fd5b600080546040516001600160a01b03909116907f8be0079c531659141344cd1fd0a4f28419497f9722a3daafe3b4186f6b6457e0908390a3600080546001600160a01b0319169055565b60016020526000908152604090205460ff1681565b6000546001600160a01b031690565b6000546001600160a01b0316331490565b60606003805480602002602001604051908101604052809291908181526020018280548015610263576020028201919060005260206000209081546001600160a01b03168152600190910190602001808311610245575050505050905090565b60026020526000908152604090205460ff1681565b6104f0610462565b6104f957600080fd5b61050281610505565b50565b6001600160a01b03811661051857600080fd5b600080546040516001600160a01b03808516939216917f8be0079c531659141344cd1fd0a4f28419497f9722a3daafe3b4186f6b6457e091a3600080546001600160a01b0319166001600160a01b039290921691909117905556fea265627a7a72315820c831519762257b71ae05bcdfdda5953b4f4badb5d5bda89c0f8e54ece7c1623e64736f6c63430005100032",
  "source": "pragma solidity >=0.5.0 <0.6.0;\r\n\r\nimport \"./ownable.sol\";\r\n\r\n\r\ncontract VoteManagement is Ownable {\r\n    event IssuerAdded(address indexed issuer);\r\n    event CandidateAdded(address indexed issuer);\r\n\r\n    mapping(address => bool) public isIssuer;\r\n    mapping(address => bool) public isCandidate;\r\n    address[] issuers;\r\n    address[] candidates;\r\n\r\n    modifier issuerCondition(address recipient){\r\n        require(isIssuer[msg.sender] == true);\r\n        require(isIssuer[recipient] == false);\r\n        require(isCandidate[recipient] == false);\r\n        _;\r\n    }\r\n\r\n    modifier notOwner(address target){\r\n        require(target != _owner);\r\n        _;\r\n    }\r\n\r\n    function addIssuer(address _issuer) public onlyOwner notOwner(_issuer) {\r\n        isIssuer[_issuer] = true;\r\n        issuers.push(_issuer);\r\n        emit IssuerAdded(_issuer);\r\n    }\r\n\r\n    function addCandidate(address _candidate) public onlyOwner notOwner(_candidate) {\r\n        isCandidate[_candidate] = true;\r\n        candidates.push(_candidate);\r\n        emit CandidateAdded(_candidate);\r\n    }\r\n\r\n    function getIssuers() external view returns (address[] memory){\r\n        return issuers;\r\n    }\r\n\r\n    function getCandidates() external view returns (address[] memory){\r\n        return candidates;\r\n    }\r\n}\r\n",
  "sourcePath": "D:\\Projects\\Webstorm Projects\\decentralized-voting-system\\src\\app\\ethereum\\contracts\\votemanagement.sol",
  "compiler": {
    "name": "solc",
    "version": "0.5.16+commit.9c3226ce.Emscripten.clang"
  },
  "schemaVersion": "3.3.1",
  "updatedAt": "2020-10-25T21:13:23.746Z",
  "devdoc": {
    "methods": {
      "isOwner()": {
        "return": "true if `msg.sender` is the owner of the contract."
      },
      "owner()": {
        "return": "the address of the owner."
      },
      "renounceOwnership()": {
        "details": "Allows the current owner to relinquish control of the contract."
      },
      "transferOwnership(address)": {
        "details": "Allows the current owner to transfer control of the contract to a newOwner.",
        "params": {
          "newOwner": "The address to transfer ownership to."
        }
      }
    }
  },
  "userdoc": {
    "methods": {
      "renounceOwnership()": {
        "notice": "Renouncing to ownership will leave the contract without an owner. It will not be possible to call the functions with the `onlyOwner` modifier anymore."
      }
    }
  }
}