{
  "contractName": "VoteIssuersManagement",
  "abi": [
    {
      "anonymous": false,
      "inputs": [
        {
          "indexed": true,
          "internalType": "address",
          "name": "issuer",
          "type": "address"
        }
      ],
      "name": "IssuerAdded",
      "type": "event"
    },
    {
      "anonymous": false,
      "inputs": [
        {
          "indexed": true,
          "internalType": "address",
          "name": "previousOwner",
          "type": "address"
        },
        {
          "indexed": true,
          "internalType": "address",
          "name": "newOwner",
          "type": "address"
        }
      ],
      "name": "OwnershipTransferred",
      "type": "event"
    },
    {
      "constant": true,
      "inputs": [
        {
          "internalType": "address",
          "name": "",
          "type": "address"
        }
      ],
      "name": "isIssuer",
      "outputs": [
        {
          "internalType": "bool",
          "name": "",
          "type": "bool"
        }
      ],
      "payable": false,
      "stateMutability": "view",
      "type": "function"
    },
    {
      "constant": true,
      "inputs": [],
      "name": "isOwner",
      "outputs": [
        {
          "internalType": "bool",
          "name": "",
          "type": "bool"
        }
      ],
      "payable": false,
      "stateMutability": "view",
      "type": "function"
    },
    {
      "constant": true,
      "inputs": [],
      "name": "owner",
      "outputs": [
        {
          "internalType": "address",
          "name": "",
          "type": "address"
        }
      ],
      "payable": false,
      "stateMutability": "view",
      "type": "function"
    },
    {
      "constant": false,
      "inputs": [],
      "name": "renounceOwnership",
      "outputs": [],
      "payable": false,
      "stateMutability": "nonpayable",
      "type": "function"
    },
    {
      "constant": false,
      "inputs": [
        {
          "internalType": "address",
          "name": "newOwner",
          "type": "address"
        }
      ],
      "name": "transferOwnership",
      "outputs": [],
      "payable": false,
      "stateMutability": "nonpayable",
      "type": "function"
    },
    {
      "constant": false,
      "inputs": [
        {
          "internalType": "address",
          "name": "_issuer",
          "type": "address"
        }
      ],
      "name": "addIssuer",
      "outputs": [],
      "payable": false,
      "stateMutability": "nonpayable",
      "type": "function"
    },
    {
      "constant": true,
      "inputs": [],
      "name": "getIssuers",
      "outputs": [
        {
          "internalType": "address[]",
          "name": "",
          "type": "address[]"
        }
      ],
      "payable": false,
      "stateMutability": "view",
      "type": "function"
    }
  ],
  "bytecode": "0x60806040819052600080546001600160a01b03191633178082556001600160a01b0316917f8be0079c531659141344cd1fd0a4f28419497f9722a3daafe3b4186f6b6457e0908290a36103e5806100576000396000f3fe608060405234801561001057600080fd5b506004361061007d5760003560e01c80638da5cb5b1161005b5780638da5cb5b146100ec5780638f32d59b14610110578063a594da9514610118578063f2fde38b146101705761007d565b806320694db014610082578063715018a6146100aa578063877b9a67146100b2575b600080fd5b6100a86004803603602081101561009857600080fd5b50356001600160a01b0316610196565b005b6100a8610233565b6100d8600480360360208110156100c857600080fd5b50356001600160a01b031661028e565b604080519115158252519081900360200190f35b6100f46102a3565b604080516001600160a01b039092168252519081900360200190f35b6100d86102b2565b6101206102c3565b60408051602080825283518183015283519192839290830191858101910280838360005b8381101561015c578181015183820152602001610144565b505050509050019250505060405180910390f35b6100a86004803603602081101561018657600080fd5b50356001600160a01b0316610325565b61019e6102b2565b6101a757600080fd5b6001600160a01b0381166000818152600160208190526040808320805460ff19168317905560028054928301815583527f405787fa12a823e0f2b7631cc41b3ba8828b3321ca811111fa75cd3aa3bb5ace90910180546001600160a01b03191684179055517f05e7c881d716bee8cb7ed92293133ba156704252439e5c502c277448f04e20c29190a250565b61023b6102b2565b61024457600080fd5b600080546040516001600160a01b03909116907f8be0079c531659141344cd1fd0a4f28419497f9722a3daafe3b4186f6b6457e0908390a3600080546001600160a01b0319169055565b60016020526000908152604090205460ff1681565b6000546001600160a01b031690565b6000546001600160a01b0316331490565b6060600280548060200260200160405190810160405280929190818152602001828054801561031b57602002820191906000526020600020905b81546001600160a01b031681526001909101906020018083116102fd575b5050505050905090565b61032d6102b2565b61033657600080fd5b61033f81610342565b50565b6001600160a01b03811661035557600080fd5b600080546040516001600160a01b03808516939216917f8be0079c531659141344cd1fd0a4f28419497f9722a3daafe3b4186f6b6457e091a3600080546001600160a01b0319166001600160a01b039290921691909117905556fea265627a7a723158208911da57f9312e97ab50bba7568442d11f0ca5f0534bf29b46e67f9a73eb331f64736f6c63430005100032",
  "source": "pragma solidity >=0.5.0 <0.6.0;\r\n\r\nimport \"./ownable.sol\";\r\n\r\n\r\ncontract VoteIssuersManagement is Ownable {\r\n    event IssuerAdded(address indexed issuer);\r\n\r\n    mapping(address => bool) public isIssuer;\r\n    address[] issuers;\r\n\r\n    modifier onlyIssuer(){\r\n        require(isIssuer[msg.sender] == true);\r\n        _;\r\n    }\r\n\r\n    function addIssuer(address _issuer) public onlyOwner {\r\n        isIssuer[_issuer] = true;\r\n        issuers.push(_issuer);\r\n        emit IssuerAdded(_issuer);\r\n    }\r\n\r\n    function getIssuers() external view returns (address[] memory){\r\n        return issuers;\r\n    }\r\n}\r\n",
  "sourcePath": "D:\\Projects\\Webstorm Projects\\decentralized-vote-system\\src\\app\\ethereum\\contracts\\voteissuersmanagement.sol",
  "compiler": {
    "name": "solc",
    "version": "0.5.16+commit.9c3226ce.Emscripten.clang"
  },
  "schemaVersion": "3.3.1",
  "updatedAt": "2020-10-19T21:50:51.021Z",
  "devdoc": {
    "methods": {
      "isOwner()": {
        "return": "true if `msg.sender` is the owner of the contract."
      },
      "owner()": {
        "return": "the address of the owner."
      },
      "renounceOwnership()": {
        "details": "Allows the current owner to relinquish control of the contract."
      },
      "transferOwnership(address)": {
        "details": "Allows the current owner to transfer control of the contract to a newOwner.",
        "params": {
          "newOwner": "The address to transfer ownership to."
        }
      }
    }
  },
  "userdoc": {
    "methods": {
      "renounceOwnership()": {
        "notice": "Renouncing to ownership will leave the contract without an owner. It will not be possible to call the functions with the `onlyOwner` modifier anymore."
      }
    }
  }
}