{
  "contractName": "VoteSystem",
  "abi": [
    {
      "anonymous": false,
      "inputs": [
        {
          "indexed": true,
          "internalType": "address",
          "name": "_owner",
          "type": "address"
        },
        {
          "indexed": true,
          "internalType": "address",
          "name": "_approved",
          "type": "address"
        },
        {
          "indexed": true,
          "internalType": "uint256",
          "name": "_tokenId",
          "type": "uint256"
        }
      ],
      "name": "Approval",
      "type": "event"
    },
    {
      "anonymous": false,
      "inputs": [
        {
          "indexed": true,
          "internalType": "address",
          "name": "issuer",
          "type": "address"
        }
      ],
      "name": "IssuerAdded",
      "type": "event"
    },
    {
      "anonymous": false,
      "inputs": [
        {
          "indexed": true,
          "internalType": "address",
          "name": "previousOwner",
          "type": "address"
        },
        {
          "indexed": true,
          "internalType": "address",
          "name": "newOwner",
          "type": "address"
        }
      ],
      "name": "OwnershipTransferred",
      "type": "event"
    },
    {
      "anonymous": false,
      "inputs": [
        {
          "indexed": true,
          "internalType": "address",
          "name": "_from",
          "type": "address"
        },
        {
          "indexed": true,
          "internalType": "address",
          "name": "_to",
          "type": "address"
        },
        {
          "indexed": true,
          "internalType": "uint256",
          "name": "_tokenId",
          "type": "uint256"
        }
      ],
      "name": "Transfer",
      "type": "event"
    },
    {
      "anonymous": false,
      "inputs": [
        {
          "indexed": true,
          "internalType": "uint256",
          "name": "tokenId",
          "type": "uint256"
        }
      ],
      "name": "VoteIssued",
      "type": "event"
    },
    {
      "constant": false,
      "inputs": [
        {
          "internalType": "address",
          "name": "_issuer",
          "type": "address"
        }
      ],
      "name": "addIssuer",
      "outputs": [],
      "payable": false,
      "stateMutability": "nonpayable",
      "type": "function"
    },
    {
      "constant": true,
      "inputs": [],
      "name": "getIssuers",
      "outputs": [
        {
          "internalType": "address[]",
          "name": "",
          "type": "address[]"
        }
      ],
      "payable": false,
      "stateMutability": "view",
      "type": "function"
    },
    {
      "constant": true,
      "inputs": [
        {
          "internalType": "address",
          "name": "",
          "type": "address"
        }
      ],
      "name": "isCandidate",
      "outputs": [
        {
          "internalType": "bool",
          "name": "",
          "type": "bool"
        }
      ],
      "payable": false,
      "stateMutability": "view",
      "type": "function"
    },
    {
      "constant": true,
      "inputs": [
        {
          "internalType": "address",
          "name": "",
          "type": "address"
        }
      ],
      "name": "isIssuer",
      "outputs": [
        {
          "internalType": "bool",
          "name": "",
          "type": "bool"
        }
      ],
      "payable": false,
      "stateMutability": "view",
      "type": "function"
    },
    {
      "constant": true,
      "inputs": [],
      "name": "isOwner",
      "outputs": [
        {
          "internalType": "bool",
          "name": "",
          "type": "bool"
        }
      ],
      "payable": false,
      "stateMutability": "view",
      "type": "function"
    },
    {
      "constant": true,
      "inputs": [],
      "name": "owner",
      "outputs": [
        {
          "internalType": "address",
          "name": "",
          "type": "address"
        }
      ],
      "payable": false,
      "stateMutability": "view",
      "type": "function"
    },
    {
      "constant": false,
      "inputs": [],
      "name": "renounceOwnership",
      "outputs": [],
      "payable": false,
      "stateMutability": "nonpayable",
      "type": "function"
    },
    {
      "constant": false,
      "inputs": [
        {
          "internalType": "address",
          "name": "newOwner",
          "type": "address"
        }
      ],
      "name": "transferOwnership",
      "outputs": [],
      "payable": false,
      "stateMutability": "nonpayable",
      "type": "function"
    },
    {
      "constant": true,
      "inputs": [
        {
          "internalType": "address",
          "name": "_owner",
          "type": "address"
        }
      ],
      "name": "balanceOf",
      "outputs": [
        {
          "internalType": "uint256",
          "name": "",
          "type": "uint256"
        }
      ],
      "payable": false,
      "stateMutability": "view",
      "type": "function"
    },
    {
      "constant": true,
      "inputs": [
        {
          "internalType": "uint256",
          "name": "_tokenId",
          "type": "uint256"
        }
      ],
      "name": "ownerOf",
      "outputs": [
        {
          "internalType": "address",
          "name": "",
          "type": "address"
        }
      ],
      "payable": false,
      "stateMutability": "view",
      "type": "function"
    },
    {
      "constant": false,
      "inputs": [
        {
          "internalType": "address",
          "name": "_from",
          "type": "address"
        },
        {
          "internalType": "address",
          "name": "_to",
          "type": "address"
        },
        {
          "internalType": "uint256",
          "name": "_tokenId",
          "type": "uint256"
        }
      ],
      "name": "transferFrom",
      "outputs": [],
      "payable": true,
      "stateMutability": "payable",
      "type": "function"
    },
    {
      "constant": false,
      "inputs": [
        {
          "internalType": "address",
          "name": "_approved",
          "type": "address"
        },
        {
          "internalType": "uint256",
          "name": "_tokenId",
          "type": "uint256"
        }
      ],
      "name": "approve",
      "outputs": [],
      "payable": true,
      "stateMutability": "payable",
      "type": "function"
    },
    {
      "constant": false,
      "inputs": [
        {
          "internalType": "address",
          "name": "_voteRecipient",
          "type": "address"
        }
      ],
      "name": "issueVote",
      "outputs": [],
      "payable": true,
      "stateMutability": "payable",
      "type": "function"
    }
  ],
  "bytecode": "0x60806040819052600080546001600160a01b03191633178082556001600160a01b0316917f8be0079c531659141344cd1fd0a4f28419497f9722a3daafe3b4186f6b6457e0908290a3610959806100576000396000f3fe6080604052600436106100c25760003560e01c8063877b9a671161007f578063a594da9511610059578063a594da951461026f578063d51b9e93146102d4578063f2fde38b14610307578063f4aedc311461033a576100c2565b8063877b9a67146101fe5780638da5cb5b146102455780638f32d59b1461025a576100c2565b8063095ea7b3146100c757806320694db0146100f557806323b872dd146101285780636352211e1461015e57806370a08231146101a4578063715018a6146101e9575b600080fd5b6100f3600480360360408110156100dd57600080fd5b506001600160a01b038135169060200135610360565b005b34801561010157600080fd5b506100f36004803603602081101561011857600080fd5b50356001600160a01b0316610438565b6100f36004803603606081101561013e57600080fd5b506001600160a01b038135811691602081013590911690604001356104d5565b34801561016a57600080fd5b506101886004803603602081101561018157600080fd5b5035610635565b604080516001600160a01b039092168252519081900360200190f35b3480156101b057600080fd5b506101d7600480360360208110156101c757600080fd5b50356001600160a01b0316610650565b60408051918252519081900360200190f35b3480156101f557600080fd5b506100f361066b565b34801561020a57600080fd5b506102316004803603602081101561022157600080fd5b50356001600160a01b03166106c6565b604080519115158252519081900360200190f35b34801561025157600080fd5b506101886106db565b34801561026657600080fd5b506102316106ea565b34801561027b57600080fd5b506102846106fb565b60408051602080825283518183015283519192839290830191858101910280838360005b838110156102c05781810151838201526020016102a8565b505050509050019250505060405180910390f35b3480156102e057600080fd5b50610231600480360360208110156102f757600080fd5b50356001600160a01b031661075d565b34801561031357600080fd5b506100f36004803603602081101561032a57600080fd5b50356001600160a01b0316610772565b6100f36004803603602081101561035057600080fd5b50356001600160a01b031661078f565b60008181526006602052604090205481906001600160a01b0316331461038557600080fd5b6001600160a01b0383166000908152600460205260409020548290849060ff166103ae57600080fd5b600382815481106103bb57fe5b600091825260209091200154640100000000900460ff16156103dc57600080fd5b60008481526007602052604080822080546001600160a01b0319166001600160a01b0389169081179091559051869233917f8c5be1e5ebec7d5bd14f71427d1e84f3dd0314c0f7b2291e5b200ac8c7c3b9259190a45050505050565b6104406106ea565b61044957600080fd5b6001600160a01b0381166000818152600160208190526040808320805460ff19168317905560028054928301815583527f405787fa12a823e0f2b7631cc41b3ba8828b3321ca811111fa75cd3aa3bb5ace90910180546001600160a01b03191684179055517f05e7c881d716bee8cb7ed92293133ba156704252439e5c502c277448f04e20c29190a250565b6001600160a01b0382166000908152600460205260409020548190839060ff166104fe57600080fd5b6003828154811061050b57fe5b600091825260209091200154640100000000900460ff161561052c57600080fd5b6000838152600660205260409020546001600160a01b031633148061056757506000838152600760205260409020546001600160a01b031633145b61057057600080fd5b6001600160a01b03808516600081815260056020908152604080832080546001908101909155948a16835280832080546000190190558783526006909152902080546001600160a01b031916909117905560038054859081106105cf57fe5b6000918252602082200180549215156401000000000264ff00000000199093169290921790915560405184916001600160a01b0380881692908916917fddf252ad1be2c89b69c2b068fc378daa952ba7f163c4a11628f55a4df523b3ef91a45050505050565b6000908152600660205260409020546001600160a01b031690565b6001600160a01b031660009081526005602052604090205490565b6106736106ea565b61067c57600080fd5b600080546040516001600160a01b03909116907f8be0079c531659141344cd1fd0a4f28419497f9722a3daafe3b4186f6b6457e0908390a3600080546001600160a01b0319169055565b60016020526000908152604090205460ff1681565b6000546001600160a01b031690565b6000546001600160a01b0316331490565b6060600280548060200260200160405190810160405280929190818152602001828054801561075357602002820191906000526020600020905b81546001600160a01b03168152600190910190602001808311610735575b5050505050905090565b60046020526000908152604090205460ff1681565b61077a6106ea565b61078357600080fd5b61078c8161089f565b50565b3360009081526001602081905260409091205460ff161515146107b157600080fd5b6107b961090d565b5060408051808201825263ffffffff428116825260006020808401828152600380546001818101835591855286517fc2575a0e9e593c00f959f8c92f12db2869c3395a3b0502d05e2516446f71f85b82018054945115156401000000000264ff00000000199290981663ffffffff199095169490941716959095179091558383526006825285832080546001600160a01b0389166001600160a01b03199091168117909155835260059091528482208054909101905592519192909182917f20e0e0a20759ae5430ee57b8c83fe34b51334f5ba7b26509918107f5d2e9035f91a2505050565b6001600160a01b0381166108b257600080fd5b600080546040516001600160a01b03808516939216917f8be0079c531659141344cd1fd0a4f28419497f9722a3daafe3b4186f6b6457e091a3600080546001600160a01b0319166001600160a01b0392909216919091179055565b60408051808201909152600080825260208201529056fea265627a7a7231582039e3c23ec29b7326bf7b2fc6a21a4bb3bd7e28000776c358a374795fe10cdc9e64736f6c63430005100032",
  "source": "pragma solidity >=0.5.0 <0.6.0;\r\n\r\nimport \"./voteissuersmanagement.sol\";\r\nimport \"./erc721.sol\";\r\n\r\n\r\ncontract VoteSystem is VoteIssuersManagement, ERC721 {\r\n    event VoteIssued(uint indexed tokenId);\r\n\r\n    struct Vote {\r\n        uint32 issuedAt;\r\n        bool consumed;\r\n    }\r\n\r\n    Vote[] private votes;\r\n    mapping(address => bool) public isCandidate;\r\n    mapping(address => uint) ownerVotes;\r\n    mapping(uint => address) votesToOwner;\r\n    mapping(uint => address) voteTransferApproved;\r\n\r\n    modifier voteConditions(uint _tokenId, address _to){\r\n        require(isCandidate[_to]);\r\n        require(votes[_tokenId].consumed == false);\r\n        _;\r\n    }\r\n\r\n    modifier onlyOwnerOfVote(uint _tokenId){\r\n        require(votesToOwner[_tokenId] == msg.sender);\r\n        _;\r\n    }\r\n\r\n    function balanceOf(address _owner) external view returns (uint256) {\r\n        return ownerVotes[_owner];\r\n    }\r\n\r\n    function ownerOf(uint256 _tokenId) external view returns (address){\r\n        return votesToOwner[_tokenId];\r\n    }\r\n\r\n    function transferFrom(address _from, address _to, uint256 _tokenId) external payable voteConditions(_tokenId, _to) {\r\n        require(votesToOwner[_tokenId] == msg.sender || voteTransferApproved[_tokenId] == msg.sender);\r\n        ownerVotes[_to]++;\r\n        ownerVotes[_from]--;\r\n        votesToOwner[_tokenId] = _to;\r\n        votes[_tokenId].consumed = true;\r\n        emit Transfer(_from, _to, _tokenId);\r\n    }\r\n\r\n    function approve(address _approved, uint256 _tokenId) external payable onlyOwnerOfVote(_tokenId) voteConditions(_tokenId, _approved) {\r\n        voteTransferApproved[_tokenId] = _approved;\r\n        emit Approval(msg.sender, _approved, _tokenId);\r\n    }\r\n\r\n    function issueVote(address _voteRecipient) external payable onlyIssuer {\r\n        Vote memory vote = Vote(uint32(now), false);\r\n        uint id = votes.push(vote) - 1;\r\n        votesToOwner[id] = _voteRecipient;\r\n        ownerVotes[_voteRecipient]++;\r\n        emit VoteIssued(id);\r\n    }\r\n}\r\n",
  "sourcePath": "D:/Projects/Webstorm Projects/decentralized-vote-system/src/app/ethereum/contracts/votesystem.sol",
  "compiler": {
    "name": "solc",
    "version": "0.5.16+commit.9c3226ce.Emscripten.clang"
  },
  "schemaVersion": "3.3.1",
  "updatedAt": "2020-10-19T21:50:53.756Z",
  "networkType": "ethereum",
  "devdoc": {
    "methods": {
      "isOwner()": {
        "return": "true if `msg.sender` is the owner of the contract."
      },
      "owner()": {
        "return": "the address of the owner."
      },
      "renounceOwnership()": {
        "details": "Allows the current owner to relinquish control of the contract."
      },
      "transferOwnership(address)": {
        "details": "Allows the current owner to transfer control of the contract to a newOwner.",
        "params": {
          "newOwner": "The address to transfer ownership to."
        }
      }
    }
  },
  "userdoc": {
    "methods": {
      "renounceOwnership()": {
        "notice": "Renouncing to ownership will leave the contract without an owner. It will not be possible to call the functions with the `onlyOwner` modifier anymore."
      }
    }
  }
}