{
  "contractName": "VoteIssuersMgmt",
  "abi": [
    {
      "anonymous": false,
      "inputs": [
        {
          "indexed": true,
          "internalType": "address",
          "name": "issuer",
          "type": "address"
        }
      ],
      "name": "IssuerAdded",
      "type": "event"
    },
    {
      "anonymous": false,
      "inputs": [
        {
          "indexed": true,
          "internalType": "address",
          "name": "previousOwner",
          "type": "address"
        },
        {
          "indexed": true,
          "internalType": "address",
          "name": "newOwner",
          "type": "address"
        }
      ],
      "name": "OwnershipTransferred",
      "type": "event"
    },
    {
      "constant": true,
      "inputs": [],
      "name": "isOwner",
      "outputs": [
        {
          "internalType": "bool",
          "name": "",
          "type": "bool"
        }
      ],
      "payable": false,
      "stateMutability": "view",
      "type": "function"
    },
    {
      "constant": true,
      "inputs": [
        {
          "internalType": "uint256",
          "name": "",
          "type": "uint256"
        }
      ],
      "name": "issuers",
      "outputs": [
        {
          "internalType": "address",
          "name": "",
          "type": "address"
        }
      ],
      "payable": false,
      "stateMutability": "view",
      "type": "function"
    },
    {
      "constant": true,
      "inputs": [],
      "name": "owner",
      "outputs": [
        {
          "internalType": "address",
          "name": "",
          "type": "address"
        }
      ],
      "payable": false,
      "stateMutability": "view",
      "type": "function"
    },
    {
      "constant": false,
      "inputs": [],
      "name": "renounceOwnership",
      "outputs": [],
      "payable": false,
      "stateMutability": "nonpayable",
      "type": "function"
    },
    {
      "constant": false,
      "inputs": [
        {
          "internalType": "address",
          "name": "newOwner",
          "type": "address"
        }
      ],
      "name": "transferOwnership",
      "outputs": [],
      "payable": false,
      "stateMutability": "nonpayable",
      "type": "function"
    },
    {
      "constant": false,
      "inputs": [
        {
          "internalType": "address",
          "name": "_issuer",
          "type": "address"
        }
      ],
      "name": "addIssuer",
      "outputs": [],
      "payable": false,
      "stateMutability": "nonpayable",
      "type": "function"
    },
    {
      "constant": true,
      "inputs": [],
      "name": "getIssuers",
      "outputs": [
        {
          "internalType": "address[]",
          "name": "",
          "type": "address[]"
        }
      ],
      "payable": false,
      "stateMutability": "view",
      "type": "function"
    }
  ],
  "bytecode": "0x60806040819052600080546001600160a01b03191633178082556001600160a01b0316917f8be0079c531659141344cd1fd0a4f28419497f9722a3daafe3b4186f6b6457e0908290a36103d9806100576000396000f3fe608060405234801561001057600080fd5b506004361061007d5760003560e01c80638da5cb5b1161005b5780638da5cb5b146100eb5780638f32d59b146100f3578063a594da951461010f578063f2fde38b146101675761007d565b806320694db01461008257806361ec30c4146100aa578063715018a6146100e3575b600080fd5b6100a86004803603602081101561009857600080fd5b50356001600160a01b031661018d565b005b6100c7600480360360208110156100c057600080fd5b5035610215565b604080516001600160a01b039092168252519081900360200190f35b6100a861023c565b6100c7610297565b6100fb6102a6565b604080519115158252519081900360200190f35b6101176102b7565b60408051602080825283518183015283519192839290830191858101910280838360005b8381101561015357818101518382015260200161013b565b505050509050019250505060405180910390f35b6100a86004803603602081101561017d57600080fd5b50356001600160a01b0316610319565b6101956102a6565b61019e57600080fd5b60018054808201825560009182527fb10e2d527612073b26eecdfd717e6a320cf44b4afac2b0732d9fcbe2b7fa0cf60180546001600160a01b0319166001600160a01b03841690811790915560405190917f05e7c881d716bee8cb7ed92293133ba156704252439e5c502c277448f04e20c291a250565b6001818154811061022257fe5b6000918252602090912001546001600160a01b0316905081565b6102446102a6565b61024d57600080fd5b600080546040516001600160a01b03909116907f8be0079c531659141344cd1fd0a4f28419497f9722a3daafe3b4186f6b6457e0908390a3600080546001600160a01b0319169055565b6000546001600160a01b031690565b6000546001600160a01b0316331490565b6060600180548060200260200160405190810160405280929190818152602001828054801561030f57602002820191906000526020600020905b81546001600160a01b031681526001909101906020018083116102f1575b5050505050905090565b6103216102a6565b61032a57600080fd5b61033381610336565b50565b6001600160a01b03811661034957600080fd5b600080546040516001600160a01b03808516939216917f8be0079c531659141344cd1fd0a4f28419497f9722a3daafe3b4186f6b6457e091a3600080546001600160a01b0319166001600160a01b039290921691909117905556fea265627a7a72315820ed5573cf42732feeef79ee1461c0b12230abe74704f1b7b56903269ced80a9bc64736f6c63430005100032",
  "source": "pragma solidity >=0.5.0 <0.6.0;\r\n\r\nimport \"./ownable.sol\";\r\n\r\n\r\ncontract VoteIssuersMgmt is Ownable {\r\n    event IssuerAdded(address indexed issuer);\r\n\r\n    address[] public issuers;\r\n\r\n    function addIssuer(address _issuer) public onlyOwner {\r\n        issuers.push(_issuer);\r\n        emit IssuerAdded(_issuer);\r\n    }\r\n\r\n    function getIssuers() external view returns (address[] memory){\r\n        return issuers;\r\n    }\r\n}\r\n",
  "sourcePath": "D:\\Projects\\Webstorm Projects\\decentralized-vote-system\\src\\app\\ethereum\\contracts\\voteissuersmgmt.sol",
  "compiler": {
    "name": "solc",
    "version": "0.5.16+commit.9c3226ce.Emscripten.clang"
  },
  "schemaVersion": "3.3.1",
  "updatedAt": "2020-10-19T11:57:37.899Z",
  "devdoc": {
    "methods": {
      "isOwner()": {
        "return": "true if `msg.sender` is the owner of the contract."
      },
      "owner()": {
        "return": "the address of the owner."
      },
      "renounceOwnership()": {
        "details": "Allows the current owner to relinquish control of the contract."
      },
      "transferOwnership(address)": {
        "details": "Allows the current owner to transfer control of the contract to a newOwner.",
        "params": {
          "newOwner": "The address to transfer ownership to."
        }
      }
    }
  },
  "userdoc": {
    "methods": {
      "renounceOwnership()": {
        "notice": "Renouncing to ownership will leave the contract without an owner. It will not be possible to call the functions with the `onlyOwner` modifier anymore."
      }
    }
  }
}